{
  "_format": "hh-sol-artifact-1",
  "contractName": "SwapExchange",
  "sourceName": "contracts/SwapExchange.sol",
  "abi": [
    {
      "inputs": [],
      "stateMutability": "nonpayable",
      "type": "constructor"
    },
    {
      "anonymous": false,
      "inputs": [
        {
          "indexed": true,
          "internalType": "address",
          "name": "_from",
          "type": "address"
        },
        {
          "indexed": true,
          "internalType": "address",
          "name": "_to",
          "type": "address"
        },
        {
          "indexed": false,
          "internalType": "uint256",
          "name": "_value",
          "type": "uint256"
        },
        {
          "indexed": false,
          "internalType": "uint256",
          "name": "_fee",
          "type": "uint256"
        }
      ],
      "name": "Swap",
      "type": "event"
    },
    {
      "stateMutability": "payable",
      "type": "fallback"
    },
    {
      "inputs": [],
      "name": "destruir",
      "outputs": [
        {
          "internalType": "bool",
          "name": "",
          "type": "bool"
        }
      ],
      "stateMutability": "nonpayable",
      "type": "function"
    },
    {
      "stateMutability": "payable",
      "type": "receive"
    }
  ],
  "bytecode": "0x608060405234801561001057600080fd5b50600160008190555033600160006101000a81548173ffffffffffffffffffffffffffffffffffffffff021916908373ffffffffffffffffffffffffffffffffffffffff160217905550610599806100696000396000f3fe6080604052600436106100225760003560e01c8063eb13958414610114576100a6565b366100a6576100656040518060400160405280600c81526020017f537761702073746172746564000000000000000000000000000000000000000081525061013f565b6100a46040518060400160405280600d81526020017f4554482052656365697665642100000000000000000000000000000000000000815250346101d8565b005b33600360006101000a81548173ffffffffffffffffffffffffffffffffffffffff021916908373ffffffffffffffffffffffffffffffffffffffff160217905550610112600360009054906101000a900473ffffffffffffffffffffffffffffffffffffffff16610274565b005b34801561012057600080fd5b5061012961030d565b604051610136919061044e565b60405180910390f35b6101d5816040516024016101539190610469565b6040516020818303038152906040527f41304fac000000000000000000000000000000000000000000000000000000007bffffffffffffffffffffffffffffffffffffffffffffffffffffffff19166020820180517bffffffffffffffffffffffffffffffffffffffffffffffffffffffff83818316178352505050506103a4565b50565b61027082826040516024016101ee92919061048b565b6040516020818303038152906040527f9710a9d0000000000000000000000000000000000000000000000000000000007bffffffffffffffffffffffffffffffffffffffffffffffffffffffff19166020820180517bffffffffffffffffffffffffffffffffffffffffffffffffffffffff83818316178352505050506103a4565b5050565b61030a816040516024016102889190610433565b6040516020818303038152906040527f2c2ecbc2000000000000000000000000000000000000000000000000000000007bffffffffffffffffffffffffffffffffffffffffffffffffffffffff19166020820180517bffffffffffffffffffffffffffffffffffffffffffffffffffffffff83818316178352505050506103a4565b50565b6000600160009054906101000a900473ffffffffffffffffffffffffffffffffffffffff1673ffffffffffffffffffffffffffffffffffffffff163373ffffffffffffffffffffffffffffffffffffffff161461036957600080fd5b600160009054906101000a900473ffffffffffffffffffffffffffffffffffffffff1673ffffffffffffffffffffffffffffffffffffffff16ff5b60008151905060006a636f6e736f6c652e6c6f679050602083016000808483855afa5050505050565b6103d6816104d7565b82525050565b6103e5816104e9565b82525050565b60006103f6826104bb565b61040081856104c6565b935061041081856020860161051f565b61041981610552565b840191505092915050565b61042d81610515565b82525050565b600060208201905061044860008301846103cd565b92915050565b600060208201905061046360008301846103dc565b92915050565b6000602082019050818103600083015261048381846103eb565b905092915050565b600060408201905081810360008301526104a581856103eb565b90506104b46020830184610424565b9392505050565b600081519050919050565b600082825260208201905092915050565b60006104e2826104f5565b9050919050565b60008115159050919050565b600073ffffffffffffffffffffffffffffffffffffffff82169050919050565b6000819050919050565b60005b8381101561053d578082015181840152602081019050610522565b8381111561054c576000848401525b50505050565b6000601f19601f830116905091905056fea2646970667358221220e99b5f49ab7800fd69c826bc32202b9bf2e4e5a1baeb4ce0efda9ab19dbddc9f64736f6c63430008000033",
  "linkReferences": {},
  "deployedLinkReferences": {}
}