{
  "_format": "hh-sol-artifact-1",
  "contractName": "ButerinDice",
  "sourceName": "contracts/ButerinDice.sol",
  "abi": [
    {
      "inputs": [],
      "stateMutability": "nonpayable",
      "type": "constructor"
    },
    {
      "anonymous": false,
      "inputs": [
        {
          "indexed": true,
          "internalType": "address",
          "name": "owner",
          "type": "address"
        },
        {
          "indexed": true,
          "internalType": "address",
          "name": "spender",
          "type": "address"
        },
        {
          "indexed": false,
          "internalType": "uint256",
          "name": "value",
          "type": "uint256"
        }
      ],
      "name": "Approval",
      "type": "event"
    },
    {
      "anonymous": false,
      "inputs": [
        {
          "indexed": true,
          "internalType": "address",
          "name": "_from",
          "type": "address"
        },
        {
          "indexed": false,
          "internalType": "uint256",
          "name": "_value",
          "type": "uint256"
        }
      ],
      "name": "EthReceived",
      "type": "event"
    },
    {
      "anonymous": false,
      "inputs": [
        {
          "indexed": true,
          "internalType": "address",
          "name": "_from",
          "type": "address"
        },
        {
          "indexed": false,
          "internalType": "uint256",
          "name": "_value",
          "type": "uint256"
        },
        {
          "indexed": false,
          "internalType": "bool",
          "name": "winner",
          "type": "bool"
        },
        {
          "indexed": false,
          "internalType": "uint256",
          "name": "nftId",
          "type": "uint256"
        }
      ],
      "name": "GameOver",
      "type": "event"
    },
    {
      "anonymous": false,
      "inputs": [
        {
          "indexed": true,
          "internalType": "address",
          "name": "from",
          "type": "address"
        },
        {
          "indexed": true,
          "internalType": "address",
          "name": "to",
          "type": "address"
        },
        {
          "indexed": false,
          "internalType": "uint256",
          "name": "value",
          "type": "uint256"
        }
      ],
      "name": "Transfer",
      "type": "event"
    },
    {
      "inputs": [
        {
          "internalType": "address",
          "name": "owner",
          "type": "address"
        },
        {
          "internalType": "address",
          "name": "spender",
          "type": "address"
        }
      ],
      "name": "allowance",
      "outputs": [
        {
          "internalType": "uint256",
          "name": "",
          "type": "uint256"
        }
      ],
      "stateMutability": "view",
      "type": "function"
    },
    {
      "inputs": [
        {
          "internalType": "address",
          "name": "spender",
          "type": "address"
        },
        {
          "internalType": "uint256",
          "name": "amount",
          "type": "uint256"
        }
      ],
      "name": "approve",
      "outputs": [
        {
          "internalType": "bool",
          "name": "",
          "type": "bool"
        }
      ],
      "stateMutability": "nonpayable",
      "type": "function"
    },
    {
      "inputs": [
        {
          "internalType": "address",
          "name": "account",
          "type": "address"
        }
      ],
      "name": "balanceOf",
      "outputs": [
        {
          "internalType": "uint256",
          "name": "",
          "type": "uint256"
        }
      ],
      "stateMutability": "view",
      "type": "function"
    },
    {
      "inputs": [],
      "name": "blockHashNow",
      "outputs": [
        {
          "internalType": "bytes32",
          "name": "",
          "type": "bytes32"
        }
      ],
      "stateMutability": "view",
      "type": "function"
    },
    {
      "inputs": [],
      "name": "blockHashPrevious",
      "outputs": [
        {
          "internalType": "bytes32",
          "name": "",
          "type": "bytes32"
        }
      ],
      "stateMutability": "view",
      "type": "function"
    },
    {
      "inputs": [],
      "name": "blockNumber",
      "outputs": [
        {
          "internalType": "uint256",
          "name": "",
          "type": "uint256"
        }
      ],
      "stateMutability": "view",
      "type": "function"
    },
    {
      "inputs": [],
      "name": "decimals",
      "outputs": [
        {
          "internalType": "uint8",
          "name": "",
          "type": "uint8"
        }
      ],
      "stateMutability": "view",
      "type": "function"
    },
    {
      "inputs": [
        {
          "internalType": "address",
          "name": "spender",
          "type": "address"
        },
        {
          "internalType": "uint256",
          "name": "subtractedValue",
          "type": "uint256"
        }
      ],
      "name": "decreaseAllowance",
      "outputs": [
        {
          "internalType": "bool",
          "name": "",
          "type": "bool"
        }
      ],
      "stateMutability": "nonpayable",
      "type": "function"
    },
    {
      "inputs": [],
      "name": "destruir",
      "outputs": [
        {
          "internalType": "bool",
          "name": "",
          "type": "bool"
        }
      ],
      "stateMutability": "nonpayable",
      "type": "function"
    },
    {
      "inputs": [],
      "name": "gamesPlayed",
      "outputs": [
        {
          "internalType": "uint256",
          "name": "",
          "type": "uint256"
        }
      ],
      "stateMutability": "view",
      "type": "function"
    },
    {
      "inputs": [
        {
          "internalType": "address",
          "name": "spender",
          "type": "address"
        },
        {
          "internalType": "uint256",
          "name": "addedValue",
          "type": "uint256"
        }
      ],
      "name": "increaseAllowance",
      "outputs": [
        {
          "internalType": "bool",
          "name": "",
          "type": "bool"
        }
      ],
      "stateMutability": "nonpayable",
      "type": "function"
    },
    {
      "inputs": [],
      "name": "losers",
      "outputs": [
        {
          "internalType": "uint256",
          "name": "",
          "type": "uint256"
        }
      ],
      "stateMutability": "view",
      "type": "function"
    },
    {
      "inputs": [],
      "name": "name",
      "outputs": [
        {
          "internalType": "string",
          "name": "",
          "type": "string"
        }
      ],
      "stateMutability": "view",
      "type": "function"
    },
    {
      "inputs": [],
      "name": "symbol",
      "outputs": [
        {
          "internalType": "string",
          "name": "",
          "type": "string"
        }
      ],
      "stateMutability": "view",
      "type": "function"
    },
    {
      "inputs": [],
      "name": "totalGamesPlayed",
      "outputs": [
        {
          "internalType": "uint256",
          "name": "",
          "type": "uint256"
        }
      ],
      "stateMutability": "view",
      "type": "function"
    },
    {
      "inputs": [],
      "name": "totalLosers",
      "outputs": [
        {
          "internalType": "uint256",
          "name": "",
          "type": "uint256"
        }
      ],
      "stateMutability": "view",
      "type": "function"
    },
    {
      "inputs": [],
      "name": "totalSupply",
      "outputs": [
        {
          "internalType": "uint256",
          "name": "",
          "type": "uint256"
        }
      ],
      "stateMutability": "view",
      "type": "function"
    },
    {
      "inputs": [],
      "name": "totalWinners",
      "outputs": [
        {
          "internalType": "uint256",
          "name": "",
          "type": "uint256"
        }
      ],
      "stateMutability": "view",
      "type": "function"
    },
    {
      "inputs": [
        {
          "internalType": "address",
          "name": "recipient",
          "type": "address"
        },
        {
          "internalType": "uint256",
          "name": "amount",
          "type": "uint256"
        }
      ],
      "name": "transfer",
      "outputs": [
        {
          "internalType": "bool",
          "name": "",
          "type": "bool"
        }
      ],
      "stateMutability": "nonpayable",
      "type": "function"
    },
    {
      "inputs": [
        {
          "internalType": "address",
          "name": "sender",
          "type": "address"
        },
        {
          "internalType": "address",
          "name": "recipient",
          "type": "address"
        },
        {
          "internalType": "uint256",
          "name": "amount",
          "type": "uint256"
        }
      ],
      "name": "transferFrom",
      "outputs": [
        {
          "internalType": "bool",
          "name": "",
          "type": "bool"
        }
      ],
      "stateMutability": "nonpayable",
      "type": "function"
    },
    {
      "inputs": [],
      "name": "winners",
      "outputs": [
        {
          "internalType": "uint256",
          "name": "",
          "type": "uint256"
        }
      ],
      "stateMutability": "view",
      "type": "function"
    },
    {
      "inputs": [
        {
          "internalType": "uint256",
          "name": "amount",
          "type": "uint256"
        }
      ],
      "name": "withdraw",
      "outputs": [
        {
          "internalType": "bool",
          "name": "",
          "type": "bool"
        }
      ],
      "stateMutability": "nonpayable",
      "type": "function"
    },
    {
      "stateMutability": "payable",
      "type": "receive"
    }
  ],
  "bytecode": "0x60806040523480156200001157600080fd5b506040518060400160405280600481526020017f44494345000000000000000000000000000000000000000000000000000000008152506040518060400160405280600381526020017f42445400000000000000000000000000000000000000000000000000000000008152508160039080519060200190620000969291906200034d565b508060049080519060200190620000af9291906200034d565b50505073ecbdc61d52581998d0e52496bb51b84d97cc065b600560006101000a81548173ffffffffffffffffffffffffffffffffffffffff021916908373ffffffffffffffffffffffffffffffffffffffff16021790555033600660006101000a81548173ffffffffffffffffffffffffffffffffffffffff021916908373ffffffffffffffffffffffffffffffffffffffff16021790555062000188600660009054906101000a900473ffffffffffffffffffffffffffffffffffffffff166b204fce5e3e25026110000000620001e360201b60201c565b73a0ee7a142d267c1f36714e4a8f75612f20a79720600760006101000a81548173ffffffffffffffffffffffffffffffffffffffff021916908373ffffffffffffffffffffffffffffffffffffffff1602179055506200059b565b600073ffffffffffffffffffffffffffffffffffffffff168273ffffffffffffffffffffffffffffffffffffffff16141562000256576040517f08c379a00000000000000000000000000000000000000000000000000000000081526004016200024d9062000450565b60405180910390fd5b6200026a600083836200034860201b60201c565b80600260008282546200027e9190620004a0565b92505081905550806000808473ffffffffffffffffffffffffffffffffffffffff1673ffffffffffffffffffffffffffffffffffffffff1681526020019081526020016000206000828254620002d59190620004a0565b925050819055508173ffffffffffffffffffffffffffffffffffffffff16600073ffffffffffffffffffffffffffffffffffffffff167fddf252ad1be2c89b69c2b068fc378daa952ba7f163c4a11628f55a4df523b3ef836040516200033c919062000472565b60405180910390a35050565b505050565b8280546200035b9062000507565b90600052602060002090601f0160209004810192826200037f5760008555620003cb565b82601f106200039a57805160ff1916838001178555620003cb565b82800160010185558215620003cb579182015b82811115620003ca578251825591602001919060010190620003ad565b5b509050620003da9190620003de565b5090565b5b80821115620003f9576000816000905550600101620003df565b5090565b60006200040c601f836200048f565b91507f45524332303a206d696e7420746f20746865207a65726f2061646472657373006000830152602082019050919050565b6200044a81620004fd565b82525050565b600060208201905081810360008301526200046b81620003fd565b9050919050565b60006020820190506200048960008301846200043f565b92915050565b600082825260208201905092915050565b6000620004ad82620004fd565b9150620004ba83620004fd565b9250827fffffffffffffffffffffffffffffffffffffffffffffffffffffffffffffffff03821115620004f257620004f16200053d565b5b828201905092915050565b6000819050919050565b600060028204905060018216806200052057607f821691505b602082108114156200053757620005366200056c565b5b50919050565b7f4e487b7100000000000000000000000000000000000000000000000000000000600052601160045260246000fd5b7f4e487b7100000000000000000000000000000000000000000000000000000000600052602260045260246000fd5b61303180620005ab6000396000f3fe6080604052600436106101395760003560e01c80636c39b7ee116100ab578063a487bcd81161006f578063a487bcd814610956578063a9059cbb14610981578063bcc941b6146109be578063ccddebe5146109e9578063dd62ed3e14610a14578063eb13958414610a5157610635565b80636c39b7ee1461085b57806370a082311461088657806370e35c11146108c357806395d89b41146108ee578063a457c2d71461091957610635565b80632e1a7d4d116100fd5780632e1a7d4d14610735578063313ce56714610772578063395093511461079d5780633b873452146107da57806357e871e7146108055780635c4921291461083057610635565b806306fdde031461063a578063095ea7b314610665578063149dfec2146106a257806318160ddd146106cd57806323b872dd146106f857610635565b366106355761017d6040518060400160405280600d81526020017f455448205265636569766564210000000000000000000000000000000000000081525034610a7c565b6102033073ffffffffffffffffffffffffffffffffffffffff166318160ddd6040518163ffffffff1660e01b815260040160206040518083038186803b1580156101c657600080fd5b505afa1580156101da573d6000803e3d6000fd5b505050506040513d601f19601f820116820180604052508101906101fe91906122ea565b610b18565b600660009054906101000a900473ffffffffffffffffffffffffffffffffffffffff1673ffffffffffffffffffffffffffffffffffffffff163373ffffffffffffffffffffffffffffffffffffffff16141561032d576102986040518060400160405280600d81526020017f4f776e65722073656e64696e670000000000000000000000000000000000000081525034610a7c565b600660009054906101000a900473ffffffffffffffffffffffffffffffffffffffff1673ffffffffffffffffffffffffffffffffffffffff163373ffffffffffffffffffffffffffffffffffffffff1614610328576040517f08c379a000000000000000000000000000000000000000000000000000000000815260040161031f90612a9d565b60405180910390fd5b6105e5565b600a4761033a9190612cd1565b34116105a95761037f6040518060400160405280600d81526020017f4f776e65722062616c616e63650000000000000000000000000000000000000081525047610a7c565b6103be6040518060400160405280601281526020017f42455420616d6f756e742073656e64696e67000000000000000000000000000081525034610a7c565b6103c83334610bb1565b3073ffffffffffffffffffffffffffffffffffffffff1663dd62ed3e600660009054906101000a900473ffffffffffffffffffffffffffffffffffffffff16306040518363ffffffff1660e01b8152600401610425929190612810565b60206040518083038186803b15801561043d57600080fd5b505afa158015610451573d6000803e3d6000fd5b505050506040513d601f19601f8201168201806040525081019061047591906122ea565b503073ffffffffffffffffffffffffffffffffffffffff1663095ea7b330670de0b6b3a76400006040518363ffffffff1660e01b81526004016104b99291906128b5565b602060405180830381600087803b1580156104d357600080fd5b505af11580156104e7573d6000803e3d6000fd5b505050506040513d601f19601f8201168201806040525081019061050b9190612298565b503073ffffffffffffffffffffffffffffffffffffffff166323b872dd3033670de0b6b3a76400006040518463ffffffff1660e01b81526004016105519392919061287e565b602060405180830381600087803b15801561056b57600080fd5b505af115801561057f573d6000803e3d6000fd5b505050506040513d601f19601f820116820180604052508101906105a39190612298565b506105e4565b6040517f08c379a00000000000000000000000000000000000000000000000000000000081526004016105db90612b1d565b60405180910390fd5b5b3373ffffffffffffffffffffffffffffffffffffffff167f85177f287940f2f05425a4029951af0e047a7f9c4eaa9a6e6917bcd869f866953460405161062b9190612b5d565b60405180910390a2005b600080fd5b34801561064657600080fd5b5061064f61138c565b60405161065c91906129cb565b60405180910390f35b34801561067157600080fd5b5061068c6004803603810190610687919061225c565b61141e565b6040516106999190612951565b60405180910390f35b3480156106ae57600080fd5b506106b761143c565b6040516106c49190612987565b60405180910390f35b3480156106d957600080fd5b506106e2611442565b6040516106ef9190612b5d565b60405180910390f35b34801561070457600080fd5b5061071f600480360381019061071a919061220d565b61144c565b60405161072c9190612951565b60405180910390f35b34801561074157600080fd5b5061075c600480360381019061075791906122c1565b61154d565b6040516107699190612951565b60405180910390f35b34801561077e57600080fd5b506107876116cc565b6040516107949190612c39565b60405180910390f35b3480156107a957600080fd5b506107c460048036038101906107bf919061225c565b6116d5565b6040516107d19190612951565b60405180910390f35b3480156107e657600080fd5b506107ef611781565b6040516107fc9190612b5d565b60405180910390f35b34801561081157600080fd5b5061081a61178b565b6040516108279190612b5d565b60405180910390f35b34801561083c57600080fd5b50610845611791565b6040516108529190612b5d565b60405180910390f35b34801561086757600080fd5b5061087061179b565b60405161087d9190612b5d565b60405180910390f35b34801561089257600080fd5b506108ad60048036038101906108a891906121a8565b6117a1565b6040516108ba9190612b5d565b60405180910390f35b3480156108cf57600080fd5b506108d86117e9565b6040516108e59190612987565b60405180910390f35b3480156108fa57600080fd5b506109036117ef565b60405161091091906129cb565b60405180910390f35b34801561092557600080fd5b50610940600480360381019061093b919061225c565b611881565b60405161094d9190612951565b60405180910390f35b34801561096257600080fd5b5061096b611975565b6040516109789190612b5d565b60405180910390f35b34801561098d57600080fd5b506109a860048036038101906109a3919061225c565b61197b565b6040516109b59190612951565b60405180910390f35b3480156109ca57600080fd5b506109d3611999565b6040516109e09190612b5d565b60405180910390f35b3480156109f557600080fd5b506109fe6119a3565b604051610a0b9190612b5d565b60405180910390f35b348015610a2057600080fd5b50610a3b6004803603810190610a3691906121d1565b6119a9565b604051610a489190612b5d565b60405180910390f35b348015610a5d57600080fd5b50610a66611a30565b604051610a739190612951565b60405180910390f35b610b148282604051602401610a929291906129ed565b6040516020818303038152906040527f9710a9d0000000000000000000000000000000000000000000000000000000007bffffffffffffffffffffffffffffffffffffffffffffffffffffffff19166020820180517bffffffffffffffffffffffffffffffffffffffffffffffffffffffff8381831617835250505050611ac7565b5050565b610bae81604051602401610b2c9190612b5d565b6040516020818303038152906040527ff5b1bba9000000000000000000000000000000000000000000000000000000007bffffffffffffffffffffffffffffffffffffffffffffffffffffffff19166020820180517bffffffffffffffffffffffffffffffffffffffffffffffffffffffff8381831617835250505050611ac7565b50565b6001600954610bc09190612c7b565b600981905550600080600660009054906101000a900473ffffffffffffffffffffffffffffffffffffffff1683600a5432604051602001610c049493929190612839565b604051602081830303815290604052905060003347600b546000357fffffffff0000000000000000000000000000000000000000000000000000000016604051602001610c54949392919061290c565b6040516020818303038152906040529050600042444341600954604051602001610c82959493929190612be6565b60405160208183030381529060405290504360088190555060085440600c819055506001600854610cb39190612d5c565b40600d819055506000610cd8610cc98584611af0565b610cd38585611af0565b611af0565b90506000610d0b82600c54600d54604051602001610cf79291906129a2565b604051602081830303815290604052611af0565b9050600081805190602001209050600080610d2583611bba565b91509150806fffffffffffffffffffffffffffffffff1916826fffffffffffffffffffffffffffffffff191611156111f1576000606460058c610d689190612d02565b610d729190612cd1565b60028c610d7f9190612d02565b610d899190612d5c565b9050610dca6040518060400160405280600481526020017f54455354000000000000000000000000000000000000000000000000000000008152508c610a7c565b610e156040518060400160405280600381526020017f42414c0000000000000000000000000000000000000000000000000000000000815250600a47610e109190612cd1565b610a7c565b610e546040518060400160405280600781526020017f596f752057696e0000000000000000000000000000000000000000000000000081525082610a7c565b610e926040518060400160405280600c81526020017f57696e6e65727320686173680000000000000000000000000000000000000000815250611bcb565b610e9b83611c64565b610ed96040518060400160405280600b81526020017f6c6f736572732068617368000000000000000000000000000000000000000000815250611bcb565b610ee282611c64565b8a600a47610ef09190612cd1565b610efa9190612d5c565b8b1115610fef57610f3f6040518060400160405280600381526020017f4e46540000000000000000000000000000000000000000000000000000000000815250611bcb565b600560009054906101000a900473ffffffffffffffffffffffffffffffffffffffff1673ffffffffffffffffffffffffffffffffffffffff1663cf3783438d6040518263ffffffff1660e01b8152600401610f9a91906128de565b602060405180830381600087803b158015610fb457600080fd5b505af1158015610fc8573d6000803e3d6000fd5b505050506040513d601f19601f82011682018060405250810190610fec91906122ea565b99505b60008c73ffffffffffffffffffffffffffffffffffffffff1682604051611015906127fb565b60006040518083038185875af1925050503d8060008114611052576040519150601f19603f3d011682016040523d82523d6000602084013e611057565b606091505b505090506000600760009054906101000a900473ffffffffffffffffffffffffffffffffffffffff1673ffffffffffffffffffffffffffffffffffffffff16606460058f6110a59190612d02565b6110af9190612cd1565b6040516110bb906127fb565b60006040518083038185875af1925050503d80600081146110f8576040519150601f19603f3d011682016040523d82523d6000602084013e6110fd565b606091505b505090508d73ffffffffffffffffffffffffffffffffffffffff167f4e30413b54f6144f7004a0bbb3126bc70db6b19e3f4f776869911ac5673016068460018f60405161114c93929190612baf565b60405180910390a26001600a546111639190612c7b565b600a81905550816111a9576040517f08c379a00000000000000000000000000000000000000000000000000000000081526004016111a090612a7d565b60405180910390fd5b806111e9576040517f08c379a00000000000000000000000000000000000000000000000000000000081526004016111e090612a7d565b60405180910390fd5b50505061137f565b61122f6040518060400160405280600a81526020017f47414d45204f5645522e00000000000000000000000000000000000000000000815250611bcb565b6000600760009054906101000a900473ffffffffffffffffffffffffffffffffffffffff1673ffffffffffffffffffffffffffffffffffffffff16606460058d6112799190612d02565b6112839190612cd1565b60405161128f906127fb565b60006040518083038185875af1925050503d80600081146112cc576040519150601f19603f3d011682016040523d82523d6000602084013e6112d1565b606091505b5050905080611315576040517f08c379a000000000000000000000000000000000000000000000000000000000815260040161130c90612a7d565b60405180910390fd5b8b73ffffffffffffffffffffffffffffffffffffffff167f4e30413b54f6144f7004a0bbb3126bc70db6b19e3f4f776869911ac5673016068c60008060405161136093929190612b78565b60405180910390a26001600b546113779190612c7b565b600b81905550505b5050505050505050505050565b60606003805461139b90612ee6565b80601f01602080910402602001604051908101604052809291908181526020018280546113c790612ee6565b80156114145780601f106113e957610100808354040283529160200191611414565b820191906000526020600020905b8154815290600101906020018083116113f757829003601f168201915b5050505050905090565b600061143261142b611cfd565b8484611d05565b6001905092915050565b600c5481565b6000600254905090565b6000611459848484611ed0565b6000600160008673ffffffffffffffffffffffffffffffffffffffff1673ffffffffffffffffffffffffffffffffffffffff16815260200190815260200160002060006114a4611cfd565b73ffffffffffffffffffffffffffffffffffffffff1673ffffffffffffffffffffffffffffffffffffffff16815260200190815260200160002054905082811015611524576040517f08c379a000000000000000000000000000000000000000000000000000000000815260040161151b90612abd565b60405180910390fd5b61154185611530611cfd565b858461153c9190612d5c565b611d05565b60019150509392505050565b6000600660009054906101000a900473ffffffffffffffffffffffffffffffffffffffff1673ffffffffffffffffffffffffffffffffffffffff163373ffffffffffffffffffffffffffffffffffffffff16146115a957600080fd5b478211156115b657600080fd5b6115f56040518060400160405280600881526020017f416d6f756e743a2000000000000000000000000000000000000000000000000081525083610a7c565b6000600660009054906101000a900473ffffffffffffffffffffffffffffffffffffffff1673ffffffffffffffffffffffffffffffffffffffff168360405161163d906127fb565b60006040518083038185875af1925050503d806000811461167a576040519150601f19603f3d011682016040523d82523d6000602084013e61167f565b606091505b50509050806116c3576040517f08c379a00000000000000000000000000000000000000000000000000000000081526004016116ba90612a7d565b60405180910390fd5b80915050919050565b60006012905090565b60006117776116e2611cfd565b8484600160006116f0611cfd565b73ffffffffffffffffffffffffffffffffffffffff1673ffffffffffffffffffffffffffffffffffffffff16815260200190815260200160002060008873ffffffffffffffffffffffffffffffffffffffff1673ffffffffffffffffffffffffffffffffffffffff168152602001908152602001600020546117729190612c7b565b611d05565b6001905092915050565b6000600b54905090565b60085481565b6000600954905090565b60095481565b60008060008373ffffffffffffffffffffffffffffffffffffffff1673ffffffffffffffffffffffffffffffffffffffff168152602001908152602001600020549050919050565b600d5481565b6060600480546117fe90612ee6565b80601f016020809104026020016040519081016040528092919081815260200182805461182a90612ee6565b80156118775780601f1061184c57610100808354040283529160200191611877565b820191906000526020600020905b81548152906001019060200180831161185a57829003601f168201915b5050505050905090565b60008060016000611890611cfd565b73ffffffffffffffffffffffffffffffffffffffff1673ffffffffffffffffffffffffffffffffffffffff16815260200190815260200160002060008573ffffffffffffffffffffffffffffffffffffffff1673ffffffffffffffffffffffffffffffffffffffff1681526020019081526020016000205490508281101561194d576040517f08c379a000000000000000000000000000000000000000000000000000000000815260040161194490612b3d565b60405180910390fd5b61196a611958611cfd565b8585846119659190612d5c565b611d05565b600191505092915050565b600a5481565b600061198f611988611cfd565b8484611ed0565b6001905092915050565b6000600a54905090565b600b5481565b6000600160008473ffffffffffffffffffffffffffffffffffffffff1673ffffffffffffffffffffffffffffffffffffffff16815260200190815260200160002060008373ffffffffffffffffffffffffffffffffffffffff1673ffffffffffffffffffffffffffffffffffffffff16815260200190815260200160002054905092915050565b6000600660009054906101000a900473ffffffffffffffffffffffffffffffffffffffff1673ffffffffffffffffffffffffffffffffffffffff163373ffffffffffffffffffffffffffffffffffffffff1614611a8c57600080fd5b600660009054906101000a900473ffffffffffffffffffffffffffffffffffffffff1673ffffffffffffffffffffffffffffffffffffffff16ff5b60008151905060006a636f6e736f6c652e6c6f679050602083016000808483855afa5050505050565b60606000835190506000835182611b079190612c7b565b905060006020601f8751611b1b9190612c7b565b611b259190612cd1565b905060006020601f8751611b399190612c7b565b611b439190612cd1565b905060405183815260005b83811015611b75578060010160200289015181600101602002830152806001019050611b4e565b5060005b82811015611ba25780600101602002880151868260010160200201830152806001019050611b79565b50836020018101604052809550505050505092915050565b6000808291508260801b9050915091565b611c6181604051602401611bdf91906129cb565b6040516020818303038152906040527f41304fac000000000000000000000000000000000000000000000000000000007bffffffffffffffffffffffffffffffffffffffffffffffffffffffff19166020820180517bffffffffffffffffffffffffffffffffffffffffffffffffffffffff8381831617835250505050611ac7565b50565b611cfa81604051602401611c78919061296c565b6040516020818303038152906040527f665c6104000000000000000000000000000000000000000000000000000000007bffffffffffffffffffffffffffffffffffffffffffffffffffffffff19166020820180517bffffffffffffffffffffffffffffffffffffffffffffffffffffffff8381831617835250505050611ac7565b50565b600033905090565b600073ffffffffffffffffffffffffffffffffffffffff168373ffffffffffffffffffffffffffffffffffffffff161415611d75576040517f08c379a0000000000000000000000000000000000000000000000000000000008152600401611d6c90612afd565b60405180910390fd5b600073ffffffffffffffffffffffffffffffffffffffff168273ffffffffffffffffffffffffffffffffffffffff161415611de5576040517f08c379a0000000000000000000000000000000000000000000000000000000008152600401611ddc90612a3d565b60405180910390fd5b80600160008573ffffffffffffffffffffffffffffffffffffffff1673ffffffffffffffffffffffffffffffffffffffff16815260200190815260200160002060008473ffffffffffffffffffffffffffffffffffffffff1673ffffffffffffffffffffffffffffffffffffffff168152602001908152602001600020819055508173ffffffffffffffffffffffffffffffffffffffff168373ffffffffffffffffffffffffffffffffffffffff167f8c5be1e5ebec7d5bd14f71427d1e84f3dd0314c0f7b2291e5b200ac8c7c3b92583604051611ec39190612b5d565b60405180910390a3505050565b600073ffffffffffffffffffffffffffffffffffffffff168373ffffffffffffffffffffffffffffffffffffffff161415611f40576040517f08c379a0000000000000000000000000000000000000000000000000000000008152600401611f3790612add565b60405180910390fd5b600073ffffffffffffffffffffffffffffffffffffffff168273ffffffffffffffffffffffffffffffffffffffff161415611fb0576040517f08c379a0000000000000000000000000000000000000000000000000000000008152600401611fa790612a1d565b60405180910390fd5b611fbb83838361214f565b60008060008573ffffffffffffffffffffffffffffffffffffffff1673ffffffffffffffffffffffffffffffffffffffff16815260200190815260200160002054905081811015612041576040517f08c379a000000000000000000000000000000000000000000000000000000000815260040161203890612a5d565b60405180910390fd5b818161204d9190612d5c565b6000808673ffffffffffffffffffffffffffffffffffffffff1673ffffffffffffffffffffffffffffffffffffffff16815260200190815260200160002081905550816000808573ffffffffffffffffffffffffffffffffffffffff1673ffffffffffffffffffffffffffffffffffffffff16815260200190815260200160002060008282546120dd9190612c7b565b925050819055508273ffffffffffffffffffffffffffffffffffffffff168473ffffffffffffffffffffffffffffffffffffffff167fddf252ad1be2c89b69c2b068fc378daa952ba7f163c4a11628f55a4df523b3ef846040516121419190612b5d565b60405180910390a350505050565b505050565b60008135905061216381612fb6565b92915050565b60008151905061217881612fcd565b92915050565b60008135905061218d81612fe4565b92915050565b6000815190506121a281612fe4565b92915050565b6000602082840312156121ba57600080fd5b60006121c884828501612154565b91505092915050565b600080604083850312156121e457600080fd5b60006121f285828601612154565b925050602061220385828601612154565b9150509250929050565b60008060006060848603121561222257600080fd5b600061223086828701612154565b935050602061224186828701612154565b92505060406122528682870161217e565b9150509250925092565b6000806040838503121561226f57600080fd5b600061227d85828601612154565b925050602061228e8582860161217e565b9150509250929050565b6000602082840312156122aa57600080fd5b60006122b884828501612169565b91505092915050565b6000602082840312156122d357600080fd5b60006122e18482850161217e565b91505092915050565b6000602082840312156122fc57600080fd5b600061230a84828501612193565b91505092915050565b61231c81612e59565b82525050565b61232b81612da2565b82525050565b61233a81612d90565b82525050565b61234981612db4565b82525050565b61235881612dc0565b82525050565b61236781612dec565b82525050565b61237681612df6565b82525050565b61238581612e6b565b82525050565b61239481612e7d565b82525050565b60006123a582612c54565b6123af8185612c6a565b93506123bf818560208601612eb3565b6123c881612fa5565b840191505092915050565b60006123e0602383612c6a565b91507f45524332303a207472616e7366657220746f20746865207a65726f206164647260008301527f65737300000000000000000000000000000000000000000000000000000000006020830152604082019050919050565b6000612446602283612c6a565b91507f45524332303a20617070726f766520746f20746865207a65726f20616464726560008301527f73730000000000000000000000000000000000000000000000000000000000006020830152604082019050919050565b60006124ac602683612c6a565b91507f45524332303a207472616e7366657220616d6f756e742065786365656473206260008301527f616c616e636500000000000000000000000000000000000000000000000000006020830152604082019050919050565b6000612512601483612c6a565b91507f6661696c656420746f2073656e642065746865720000000000000000000000006000830152602082019050919050565b6000612552603883612c6a565b91507f68747470733a2f2f6d6f636b692e696f2f76312f64626539326232302d32623660008301527f332d343732322d386230612d62373738313463353737353900000000000000006020830152604082019050919050565b60006125b8600f83612c6a565b91507f636f6e74726163742066756e64656400000000000000000000000000000000006000830152602082019050919050565b60006125f8602883612c6a565b91507f45524332303a207472616e7366657220616d6f756e742065786365656473206160008301527f6c6c6f77616e63650000000000000000000000000000000000000000000000006020830152604082019050919050565b600061265e602583612c6a565b91507f45524332303a207472616e736665722066726f6d20746865207a65726f20616460008301527f64726573730000000000000000000000000000000000000000000000000000006020830152604082019050919050565b60006126c4600083612c5f565b9150600082019050919050565b60006126de602483612c6a565b91507f45524332303a20617070726f76652066726f6d20746865207a65726f2061646460008301527f72657373000000000000000000000000000000000000000000000000000000006020830152604082019050919050565b6000612744601783612c6a565b91507f54727920706c6163696e672061206c6f776572206265740000000000000000006000830152602082019050919050565b6000612784602583612c6a565b91507f45524332303a2064656372656173656420616c6c6f77616e63652062656c6f7760008301527f207a65726f0000000000000000000000000000000000000000000000000000006020830152604082019050919050565b6127e681612e42565b82525050565b6127f581612e4c565b82525050565b6000612806826126b7565b9150819050919050565b60006040820190506128256000830185612313565b6128326020830184612331565b9392505050565b600060808201905061284e6000830187612322565b61285b60208301866127dd565b61286860408301856127dd565b6128756060830184612331565b95945050505050565b60006060820190506128936000830186612331565b6128a06020830185612331565b6128ad604083018461238b565b949350505050565b60006040820190506128ca6000830185612331565b6128d7602083018461238b565b9392505050565b60006040820190506128f36000830184612331565b818103602083015261290481612545565b905092915050565b60006080820190506129216000830187612331565b61292e60208301866127dd565b61293b60408301856127dd565b612948606083018461236d565b95945050505050565b60006020820190506129666000830184612340565b92915050565b6000602082019050612981600083018461234f565b92915050565b600060208201905061299c600083018461235e565b92915050565b60006040820190506129b7600083018561235e565b6129c4602083018461235e565b9392505050565b600060208201905081810360008301526129e5818461239a565b905092915050565b60006040820190508181036000830152612a07818561239a565b9050612a1660208301846127dd565b9392505050565b60006020820190508181036000830152612a36816123d3565b9050919050565b60006020820190508181036000830152612a5681612439565b9050919050565b60006020820190508181036000830152612a768161249f565b9050919050565b60006020820190508181036000830152612a9681612505565b9050919050565b60006020820190508181036000830152612ab6816125ab565b9050919050565b60006020820190508181036000830152612ad6816125eb565b9050919050565b60006020820190508181036000830152612af681612651565b9050919050565b60006020820190508181036000830152612b16816126d1565b9050919050565b60006020820190508181036000830152612b3681612737565b9050919050565b60006020820190508181036000830152612b5681612777565b9050919050565b6000602082019050612b7260008301846127dd565b92915050565b6000606082019050612b8d60008301866127dd565b612b9a6020830185612340565b612ba7604083018461237c565b949350505050565b6000606082019050612bc460008301866127dd565b612bd16020830185612340565b612bde60408301846127dd565b949350505050565b600060a082019050612bfb60008301886127dd565b612c0860208301876127dd565b612c1560408301866127dd565b612c226060830185612322565b612c2f60808301846127dd565b9695505050505050565b6000602082019050612c4e60008301846127ec565b92915050565b600081519050919050565b600081905092915050565b600082825260208201905092915050565b6000612c8682612e42565b9150612c9183612e42565b9250827fffffffffffffffffffffffffffffffffffffffffffffffffffffffffffffffff03821115612cc657612cc5612f18565b5b828201905092915050565b6000612cdc82612e42565b9150612ce783612e42565b925082612cf757612cf6612f47565b5b828204905092915050565b6000612d0d82612e42565b9150612d1883612e42565b9250817fffffffffffffffffffffffffffffffffffffffffffffffffffffffffffffffff0483118215151615612d5157612d50612f18565b5b828202905092915050565b6000612d6782612e42565b9150612d7283612e42565b925082821015612d8557612d84612f18565b5b828203905092915050565b6000612d9b82612e22565b9050919050565b6000612dad82612e22565b9050919050565b60008115159050919050565b60007fffffffffffffffffffffffffffffffff0000000000000000000000000000000082169050919050565b6000819050919050565b60007fffffffff0000000000000000000000000000000000000000000000000000000082169050919050565b600073ffffffffffffffffffffffffffffffffffffffff82169050919050565b6000819050919050565b600060ff82169050919050565b6000612e6482612e8f565b9050919050565b6000612e7682612e42565b9050919050565b6000612e8882612e42565b9050919050565b6000612e9a82612ea1565b9050919050565b6000612eac82612e22565b9050919050565b60005b83811015612ed1578082015181840152602081019050612eb6565b83811115612ee0576000848401525b50505050565b60006002820490506001821680612efe57607f821691505b60208210811415612f1257612f11612f76565b5b50919050565b7f4e487b7100000000000000000000000000000000000000000000000000000000600052601160045260246000fd5b7f4e487b7100000000000000000000000000000000000000000000000000000000600052601260045260246000fd5b7f4e487b7100000000000000000000000000000000000000000000000000000000600052602260045260246000fd5b6000601f19601f8301169050919050565b612fbf81612d90565b8114612fca57600080fd5b50565b612fd681612db4565b8114612fe157600080fd5b50565b612fed81612e42565b8114612ff857600080fd5b5056fea26469706673582212206d6f3d993c9946cd7ad6707e4340e69cfd79b62bd0893f314352c1082e192dd764736f6c63430008000033",
  "linkReferences": {},
  "deployedLinkReferences": {}
}