{
  "_format": "hh-sol-artifact-1",
  "contractName": "ButerinDice",
  "sourceName": "contracts/ButerinDice.sol",
  "abi": [
    {
      "inputs": [],
      "stateMutability": "nonpayable",
      "type": "constructor"
    },
    {
      "anonymous": false,
      "inputs": [
        {
          "indexed": true,
          "internalType": "address",
          "name": "_from",
          "type": "address"
        },
        {
          "indexed": false,
          "internalType": "uint256",
          "name": "_value",
          "type": "uint256"
        }
      ],
      "name": "EthReceived",
      "type": "event"
    },
    {
      "anonymous": false,
      "inputs": [
        {
          "indexed": true,
          "internalType": "address",
          "name": "_from",
          "type": "address"
        },
        {
          "indexed": false,
          "internalType": "uint256",
          "name": "_value",
          "type": "uint256"
        }
      ],
      "name": "YouLose",
      "type": "event"
    },
    {
      "anonymous": false,
      "inputs": [
        {
          "indexed": true,
          "internalType": "address",
          "name": "_from",
          "type": "address"
        },
        {
          "indexed": false,
          "internalType": "uint256",
          "name": "_value",
          "type": "uint256"
        }
      ],
      "name": "YouWin",
      "type": "event"
    },
    {
      "inputs": [
        {
          "internalType": "bytes",
          "name": "a",
          "type": "bytes"
        },
        {
          "internalType": "bytes",
          "name": "b",
          "type": "bytes"
        }
      ],
      "name": "MergeBytes",
      "outputs": [
        {
          "internalType": "bytes",
          "name": "c",
          "type": "bytes"
        }
      ],
      "stateMutability": "pure",
      "type": "function"
    },
    {
      "inputs": [],
      "name": "blockHashNow",
      "outputs": [
        {
          "internalType": "bytes32",
          "name": "",
          "type": "bytes32"
        }
      ],
      "stateMutability": "view",
      "type": "function"
    },
    {
      "inputs": [],
      "name": "blockHashPrevious",
      "outputs": [
        {
          "internalType": "bytes32",
          "name": "",
          "type": "bytes32"
        }
      ],
      "stateMutability": "view",
      "type": "function"
    },
    {
      "inputs": [],
      "name": "blockNumber",
      "outputs": [
        {
          "internalType": "uint256",
          "name": "",
          "type": "uint256"
        }
      ],
      "stateMutability": "view",
      "type": "function"
    },
    {
      "inputs": [],
      "name": "destruir",
      "outputs": [
        {
          "internalType": "bool",
          "name": "",
          "type": "bool"
        }
      ],
      "stateMutability": "nonpayable",
      "type": "function"
    },
    {
      "inputs": [
        {
          "internalType": "address payable",
          "name": "_to",
          "type": "address"
        },
        {
          "internalType": "uint256",
          "name": "value",
          "type": "uint256"
        }
      ],
      "name": "payWinner",
      "outputs": [],
      "stateMutability": "payable",
      "type": "function"
    },
    {
      "inputs": [
        {
          "internalType": "bytes32",
          "name": "r",
          "type": "bytes32"
        }
      ],
      "name": "splitBytes",
      "outputs": [
        {
          "internalType": "bytes16",
          "name": "i",
          "type": "bytes16"
        },
        {
          "internalType": "bytes16",
          "name": "j",
          "type": "bytes16"
        }
      ],
      "stateMutability": "pure",
      "type": "function"
    },
    {
      "inputs": [
        {
          "internalType": "uint256",
          "name": "amount",
          "type": "uint256"
        }
      ],
      "name": "withdraw",
      "outputs": [
        {
          "internalType": "bool",
          "name": "",
          "type": "bool"
        }
      ],
      "stateMutability": "nonpayable",
      "type": "function"
    },
    {
      "stateMutability": "payable",
      "type": "receive"
    }
  ],
  "bytecode": "0x608060405234801561001057600080fd5b50336000806101000a81548173ffffffffffffffffffffffffffffffffffffffff021916908373ffffffffffffffffffffffffffffffffffffffff16021790555073a0ee7a142d267c1f36714e4a8f75612f20a79720600160006101000a81548173ffffffffffffffffffffffffffffffffffffffff021916908373ffffffffffffffffffffffffffffffffffffffff160217905550611bdd806100b56000396000f3fe60806040526004361061007f5760003560e01c806366327cfc1161004e57806366327cfc146104f357806370e35c111461056f578063d1f6d4c51461059a578063eb13958414610772576103f9565b8063149dfec2146103fe5780632e1a7d4d146104295780634e958d051461047a57806357e871e7146104c8576103f9565b366103f9576100c36040518060400160405280600d81526020017f45544820526563656976656421000000000000000000000000000000000000008152503461079f565b60008054906101000a900473ffffffffffffffffffffffffffffffffffffffff1673ffffffffffffffffffffffffffffffffffffffff163373ffffffffffffffffffffffffffffffffffffffff16141561021c576101566040518060400160405280600d81526020017f4f776e65722073656e64696e67000000000000000000000000000000000000008152503461079f565b60008054906101000a900473ffffffffffffffffffffffffffffffffffffffff1673ffffffffffffffffffffffffffffffffffffffff163373ffffffffffffffffffffffffffffffffffffffff1614610217576040517f08c379a000000000000000000000000000000000000000000000000000000000815260040180806020018281038252600f8152602001807f636f6e74726163742066756e646564000000000000000000000000000000000081525060200191505060405180910390fd5b6103a9565b6005478161022657fe5b0434101561033a5761026d6040518060400160405280600d81526020017f4f776e65722062616c616e6365000000000000000000000000000000000000008152504761079f565b6102ac6040518060400160405280601281526020017f42455420616d6f756e742073656e64696e6700000000000000000000000000008152503461079f565b3073ffffffffffffffffffffffffffffffffffffffff16634e958d0533346040518363ffffffff1660e01b8152600401808373ffffffffffffffffffffffffffffffffffffffff16815260200182815260200192505050600060405180830381600087803b15801561031d57600080fd5b505af1158015610331573d6000803e3d6000fd5b505050506103a8565b6040517f08c379a00000000000000000000000000000000000000000000000000000000081526004018080602001828103825260178152602001807f54727920706c6163696e672061206c6f7765722062657400000000000000000081525060200191505060405180910390fd5b5b3373ffffffffffffffffffffffffffffffffffffffff167f85177f287940f2f05425a4029951af0e047a7f9c4eaa9a6e6917bcd869f86695346040518082815260200191505060405180910390a2005b600080fd5b34801561040a57600080fd5b506104136108a6565b6040518082815260200191505060405180910390f35b34801561043557600080fd5b506104626004803603602081101561044c57600080fd5b81019080803590602001909291905050506108ac565b60405180821515815260200191505060405180910390f35b6104c66004803603604081101561049057600080fd5b81019080803573ffffffffffffffffffffffffffffffffffffffff16906020019092919080359060200190929190505050610a59565b005b3480156104d457600080fd5b506104dd611878565b6040518082815260200191505060405180910390f35b3480156104ff57600080fd5b5061052c6004803603602081101561051657600080fd5b810190808035906020019092919050505061187e565b60405180836fffffffffffffffffffffffffffffffff19168152602001826fffffffffffffffffffffffffffffffff191681526020019250505060405180910390f35b34801561057b57600080fd5b5061058461188f565b6040518082815260200191505060405180910390f35b3480156105a657600080fd5b506106f7600480360360408110156105bd57600080fd5b81019080803590602001906401000000008111156105da57600080fd5b8201836020820111156105ec57600080fd5b8035906020019184600183028401116401000000008311171561060e57600080fd5b91908080601f016020809104026020016040519081016040528093929190818152602001838380828437600081840152601f19601f8201169050808301925050505050505091929192908035906020019064010000000081111561067157600080fd5b82018360208201111561068357600080fd5b803590602001918460018302840111640100000000831117156106a557600080fd5b91908080601f016020809104026020016040519081016040528093929190818152602001838380828437600081840152601f19601f820116905080830192505050505050509192919290505050611895565b6040518080602001828103825283818151815260200191508051906020019080838360005b8381101561073757808201518184015260208101905061071c565b50505050905090810190601f1680156107645780820380516001836020036101000a031916815260200191505b509250505060405180910390f35b34801561077e57600080fd5b50610787611940565b60405180821515815260200191505060405180910390f35b6108a282826040516024018080602001838152602001828103825284818151815260200191508051906020019080838360005b838110156107ed5780820151818401526020810190506107d2565b50505050905090810190601f16801561081a5780820380516001836020036101000a031916815260200191505b5093505050506040516020818303038152906040527f9710a9d0000000000000000000000000000000000000000000000000000000007bffffffffffffffffffffffffffffffffffffffffffffffffffffffff19166020820180517bffffffffffffffffffffffffffffffffffffffffffffffffffffffff83818316178352505050506119d4565b5050565b60035481565b60008060009054906101000a900473ffffffffffffffffffffffffffffffffffffffff1673ffffffffffffffffffffffffffffffffffffffff163373ffffffffffffffffffffffffffffffffffffffff161461090757600080fd5b4782111561091457600080fd5b6109536040518060400160405280600881526020017f416d6f756e743a200000000000000000000000000000000000000000000000008152508361079f565b60008060009054906101000a900473ffffffffffffffffffffffffffffffffffffffff1673ffffffffffffffffffffffffffffffffffffffff168360405180600001905060006040518083038185875af1925050503d80600081146109d4576040519150601f19603f3d011682016040523d82523d6000602084013e6109d9565b606091505b5050905080610a50576040517f08c379a00000000000000000000000000000000000000000000000000000000081526004018080602001828103825260148152602001807f6661696c656420746f2073656e6420657468657200000000000000000000000081525060200191505060405180910390fd5b80915050919050565b606060008054906101000a900473ffffffffffffffffffffffffffffffffffffffff1682604051602001808373ffffffffffffffffffffffffffffffffffffffff16815260200182815260200192505050604051602081830303815290604052905060603347604051602001808373ffffffffffffffffffffffffffffffffffffffff168152602001828152602001925050506040516020818303038152906040529050606042446040516020018083815260200182815260200192505050604051602081830303815290604052905043600281905550600254406003819055506001600254034060048190555060603073ffffffffffffffffffffffffffffffffffffffff1663d1f6d4c53073ffffffffffffffffffffffffffffffffffffffff1663d1f6d4c587866040518363ffffffff1660e01b8152600401808060200180602001838103835285818151815260200191508051906020019080838360005b83811015610bd6578082015181840152602081019050610bbb565b50505050905090810190601f168015610c035780820380516001836020036101000a031916815260200191505b50838103825284818151815260200191508051906020019080838360005b83811015610c3c578082015181840152602081019050610c21565b50505050905090810190601f168015610c695780820380516001836020036101000a031916815260200191505b5094505050505060006040518083038186803b158015610c8857600080fd5b505afa158015610c9c573d6000803e3d6000fd5b505050506040513d6000823e3d601f19601f820116820180604052506020811015610cc657600080fd5b8101908080516040519392919084640100000000821115610ce657600080fd5b83820191506020820185811115610cfc57600080fd5b8251866001820283011164010000000082111715610d1957600080fd5b8083526020830192505050908051906020019080838360005b83811015610d4d578082015181840152602081019050610d32565b50505050905090810190601f168015610d7a5780820380516001836020036101000a031916815260200191505b506040525050503073ffffffffffffffffffffffffffffffffffffffff1663d1f6d4c587876040518363ffffffff1660e01b8152600401808060200180602001838103835285818151815260200191508051906020019080838360005b83811015610df2578082015181840152602081019050610dd7565b50505050905090810190601f168015610e1f5780820380516001836020036101000a031916815260200191505b50838103825284818151815260200191508051906020019080838360005b83811015610e58578082015181840152602081019050610e3d565b50505050905090810190601f168015610e855780820380516001836020036101000a031916815260200191505b5094505050505060006040518083038186803b158015610ea457600080fd5b505afa158015610eb8573d6000803e3d6000fd5b505050506040513d6000823e3d601f19601f820116820180604052506020811015610ee257600080fd5b8101908080516040519392919084640100000000821115610f0257600080fd5b83820191506020820185811115610f1857600080fd5b8251866001820283011164010000000082111715610f3557600080fd5b8083526020830192505050908051906020019080838360005b83811015610f69578082015181840152602081019050610f4e565b50505050905090810190601f168015610f965780820380516001836020036101000a031916815260200191505b506040525050506040518363ffffffff1660e01b8152600401808060200180602001838103835285818151815260200191508051906020019080838360005b83811015610ff0578082015181840152602081019050610fd5565b50505050905090810190601f16801561101d5780820380516001836020036101000a031916815260200191505b50838103825284818151815260200191508051906020019080838360005b8381101561105657808201518184015260208101905061103b565b50505050905090810190601f1680156110835780820380516001836020036101000a031916815260200191505b5094505050505060006040518083038186803b1580156110a257600080fd5b505afa1580156110b6573d6000803e3d6000fd5b505050506040513d6000823e3d601f19601f8201168201806040525060208110156110e057600080fd5b810190808051604051939291908464010000000082111561110057600080fd5b8382019150602082018581111561111657600080fd5b825186600182028301116401000000008211171561113357600080fd5b8083526020830192505050908051906020019080838360005b8381101561116757808201518184015260208101905061114c565b50505050905090810190601f1680156111945780820380516001836020036101000a031916815260200191505b50604052505050905060603073ffffffffffffffffffffffffffffffffffffffff1663d1f6d4c58360035460045460405160200180838152602001828152602001925050506040516020818303038152906040526040518363ffffffff1660e01b8152600401808060200180602001838103835285818151815260200191508051906020019080838360005b8381101561123b578082015181840152602081019050611220565b50505050905090810190601f1680156112685780820380516001836020036101000a031916815260200191505b50838103825284818151815260200191508051906020019080838360005b838110156112a1578082015181840152602081019050611286565b50505050905090810190601f1680156112ce5780820380516001836020036101000a031916815260200191505b5094505050505060006040518083038186803b1580156112ed57600080fd5b505afa158015611301573d6000803e3d6000fd5b505050506040513d6000823e3d601f19601f82011682018060405250602081101561132b57600080fd5b810190808051604051939291908464010000000082111561134b57600080fd5b8382019150602082018581111561136157600080fd5b825186600182028301116401000000008211171561137e57600080fd5b8083526020830192505050908051906020019080838360005b838110156113b2578082015181840152602081019050611397565b50505050905090810190601f1680156113df5780820380516001836020036101000a031916815260200191505b5060405250505090506000818051906020012090506000803073ffffffffffffffffffffffffffffffffffffffff166366327cfc846040518263ffffffff1660e01b815260040180828152602001915050604080518083038186803b15801561144757600080fd5b505afa15801561145b573d6000803e3d6000fd5b505050506040513d604081101561147157600080fd5b81019080805190602001909291908051906020019092919050505091509150806fffffffffffffffffffffffffffffffff1916826fffffffffffffffffffffffffffffffff191611156117df576000606460058b02816114cd57fe5b0460028b020390506115146040518060400160405280600781526020017f596f752057696e000000000000000000000000000000000000000000000000008152508261079f565b6115526040518060400160405280600c81526020017f57696e6e657273206861736800000000000000000000000000000000000000008152506119fd565b61155b83611afb565b6115996040518060400160405280600c81526020017f4c6f7373657273206861736800000000000000000000000000000000000000008152506119fd565b6115a282611afb565b60008b73ffffffffffffffffffffffffffffffffffffffff168260405180600001905060006040518083038185875af1925050503d8060008114611602576040519150601f19603f3d011682016040523d82523d6000602084013e611607565b606091505b505090506000600160009054906101000a900473ffffffffffffffffffffffffffffffffffffffff1673ffffffffffffffffffffffffffffffffffffffff16606460058e028161165357fe5b0460405180600001905060006040518083038185875af1925050503d806000811461169a576040519150601f19603f3d011682016040523d82523d6000602084013e61169f565b606091505b505090503373ffffffffffffffffffffffffffffffffffffffff167f1076a3016f3a63b53f0f77d777f0c8e405a79776067a1eb7b388f088eb3b0444846040518082815260200191505060405180910390a281611764576040517f08c379a00000000000000000000000000000000000000000000000000000000081526004018080602001828103825260148152602001807f6661696c656420746f2073656e6420657468657200000000000000000000000081525060200191505060405180910390fd5b806117d7576040517f08c379a00000000000000000000000000000000000000000000000000000000081526004018080602001828103825260148152602001807f6661696c656420746f2073656e6420657468657200000000000000000000000081525060200191505060405180910390fd5b50505061186c565b61181d6040518060400160405280600a81526020017f47414d45204f5645522e000000000000000000000000000000000000000000008152506119fd565b3373ffffffffffffffffffffffffffffffffffffffff167f04edad4de4e7286afab9347bdbbc9c23b5048ee6d54efe95565d06d4a9e8146c346040518082815260200191505060405180910390a25b50505050505050505050565b60025481565b6000808291508260801b9050915091565b60045481565b6060600083519050600083518201905060006020601f875101816118b557fe5b04905060006020601f875101816118c857fe5b04905060405183815260005b838110156118fb5780600101602002890151816001016020028301528060010190506118d4565b5060005b8281101561192857806001016020028801518682600101602002018301528060010190506118ff565b50836020018101604052809550505050505092915050565b60008060009054906101000a900473ffffffffffffffffffffffffffffffffffffffff1673ffffffffffffffffffffffffffffffffffffffff163373ffffffffffffffffffffffffffffffffffffffff161461199b57600080fd5b60008054906101000a900473ffffffffffffffffffffffffffffffffffffffff1673ffffffffffffffffffffffffffffffffffffffff16ff5b60008151905060006a636f6e736f6c652e6c6f679050602083016000808483855afa5050505050565b611af8816040516024018080602001828103825283818151815260200191508051906020019080838360005b83811015611a44578082015181840152602081019050611a29565b50505050905090810190601f168015611a715780820380516001836020036101000a031916815260200191505b50925050506040516020818303038152906040527f41304fac000000000000000000000000000000000000000000000000000000007bffffffffffffffffffffffffffffffffffffffffffffffffffffffff19166020820180517bffffffffffffffffffffffffffffffffffffffffffffffffffffffff83818316178352505050506119d4565b50565b611ba48160405160240180826fffffffffffffffffffffffffffffffff191681526020019150506040516020818303038152906040527f665c6104000000000000000000000000000000000000000000000000000000007bffffffffffffffffffffffffffffffffffffffffffffffffffffffff19166020820180517bffffffffffffffffffffffffffffffffffffffffffffffffffffffff83818316178352505050506119d4565b5056fea264697066735822122085b31a8f019d462db32132f67dac06628c19b52a26e6533608d200ad3462b4f364736f6c63430007030033",
  "linkReferences": {},
  "deployedLinkReferences": {}
}