{
  "_format": "hh-sol-artifact-1",
  "contractName": "Add",
  "sourceName": "contracts/Add.sol",
  "abi": [
    {
      "inputs": [],
      "stateMutability": "nonpayable",
      "type": "constructor"
    },
    {
      "anonymous": false,
      "inputs": [
        {
          "indexed": false,
          "internalType": "uint256",
          "name": "NewSum",
          "type": "uint256"
        }
      ],
      "name": "AddEvent",
      "type": "event"
    },
    {
      "anonymous": false,
      "inputs": [
        {
          "indexed": true,
          "internalType": "address",
          "name": "_from",
          "type": "address"
        },
        {
          "indexed": false,
          "internalType": "uint256",
          "name": "_value",
          "type": "uint256"
        }
      ],
      "name": "EthReceived",
      "type": "event"
    },
    {
      "inputs": [
        {
          "internalType": "bytes",
          "name": "a",
          "type": "bytes"
        },
        {
          "internalType": "bytes",
          "name": "b",
          "type": "bytes"
        }
      ],
      "name": "MergeBytes",
      "outputs": [
        {
          "internalType": "bytes",
          "name": "c",
          "type": "bytes"
        }
      ],
      "stateMutability": "pure",
      "type": "function"
    },
    {
      "inputs": [],
      "name": "getTotal",
      "outputs": [
        {
          "internalType": "uint256",
          "name": "",
          "type": "uint256"
        }
      ],
      "stateMutability": "view",
      "type": "function"
    },
    {
      "inputs": [],
      "name": "owner",
      "outputs": [
        {
          "internalType": "address",
          "name": "",
          "type": "address"
        }
      ],
      "stateMutability": "view",
      "type": "function"
    },
    {
      "inputs": [
        {
          "internalType": "address payable",
          "name": "_to",
          "type": "address"
        },
        {
          "internalType": "uint256",
          "name": "value",
          "type": "uint256"
        }
      ],
      "name": "payWinner",
      "outputs": [],
      "stateMutability": "payable",
      "type": "function"
    },
    {
      "inputs": [
        {
          "internalType": "bytes32",
          "name": "r",
          "type": "bytes32"
        }
      ],
      "name": "splitBytes",
      "outputs": [
        {
          "internalType": "bytes16",
          "name": "i",
          "type": "bytes16"
        },
        {
          "internalType": "bytes16",
          "name": "j",
          "type": "bytes16"
        }
      ],
      "stateMutability": "pure",
      "type": "function"
    },
    {
      "inputs": [
        {
          "internalType": "uint256",
          "name": "x",
          "type": "uint256"
        },
        {
          "internalType": "uint256",
          "name": "y",
          "type": "uint256"
        }
      ],
      "name": "sum",
      "outputs": [
        {
          "internalType": "uint256",
          "name": "",
          "type": "uint256"
        }
      ],
      "stateMutability": "nonpayable",
      "type": "function"
    },
    {
      "stateMutability": "payable",
      "type": "receive"
    }
  ],
  "bytecode": "0x608060405234801561001057600080fd5b5033600160006101000a81548173ffffffffffffffffffffffffffffffffffffffff021916908373ffffffffffffffffffffffffffffffffffffffff16021790555061137a806100616000396000f3fe6080604052600436106100595760003560e01c80634e958d051461017b57806366327cfc146101c9578063775a25e3146102455780638da5cb5b14610270578063cad0899b146102b1578063d1f6d4c51461030a57610176565b366101765761009d6040518060400160405280600d81526020017f4554482052656365697665642100000000000000000000000000000000000000815250346104e2565b3073ffffffffffffffffffffffffffffffffffffffff16634e958d0533346040518363ffffffff1660e01b8152600401808373ffffffffffffffffffffffffffffffffffffffff16815260200182815260200192505050600060405180830381600087803b15801561010e57600080fd5b505af1158015610122573d6000803e3d6000fd5b505050503373ffffffffffffffffffffffffffffffffffffffff167f85177f287940f2f05425a4029951af0e047a7f9c4eaa9a6e6917bcd869f86695346040518082815260200191505060405180910390a2005b600080fd5b6101c76004803603604081101561019157600080fd5b81019080803573ffffffffffffffffffffffffffffffffffffffff169060200190929190803590602001909291905050506105e9565b005b3480156101d557600080fd5b50610202600480360360208110156101ec57600080fd5b8101908080359060200190929190505050610f52565b60405180836fffffffffffffffffffffffffffffffff19168152602001826fffffffffffffffffffffffffffffffff191681526020019250505060405180910390f35b34801561025157600080fd5b5061025a610f63565b6040518082815260200191505060405180910390f35b34801561027c57600080fd5b50610285610f6c565b604051808273ffffffffffffffffffffffffffffffffffffffff16815260200191505060405180910390f35b3480156102bd57600080fd5b506102f4600480360360408110156102d457600080fd5b810190808035906020019092919080359060200190929190505050610f92565b6040518082815260200191505060405180910390f35b34801561031657600080fd5b506104676004803603604081101561032d57600080fd5b810190808035906020019064010000000081111561034a57600080fd5b82018360208201111561035c57600080fd5b8035906020019184600183028401116401000000008311171561037e57600080fd5b91908080601f016020809104026020016040519081016040528093929190818152602001838380828437600081840152601f19601f820116905080830192505050505050509192919290803590602001906401000000008111156103e157600080fd5b8201836020820111156103f357600080fd5b8035906020019184600183028401116401000000008311171561041557600080fd5b91908080601f016020809104026020016040519081016040528093929190818152602001838380828437600081840152601f19601f820116905080830192505050505050509192919290505050611062565b6040518080602001828103825283818151815260200191508051906020019080838360005b838110156104a757808201518184015260208101905061048c565b50505050905090810190601f1680156104d45780820380516001836020036101000a031916815260200191505b509250505060405180910390f35b6105e582826040516024018080602001838152602001828103825284818151815260200191508051906020019080838360005b83811015610530578082015181840152602081019050610515565b50505050905090810190601f16801561055d5780820380516001836020036101000a031916815260200191505b5093505050506040516020818303038152906040527f9710a9d0000000000000000000000000000000000000000000000000000000007bffffffffffffffffffffffffffffffffffffffffffffffffffffffff19166020820180517bffffffffffffffffffffffffffffffffffffffffffffffffffffffff838183161783525050505061110d565b5050565b6060600160009054906101000a900473ffffffffffffffffffffffffffffffffffffffff16604051602001808273ffffffffffffffffffffffffffffffffffffffff1681526020019150506040516020818303038152906040529050606033604051602001808273ffffffffffffffffffffffffffffffffffffffff168152602001915050604051602081830303815290604052905060604260405160200180828152602001915050604051602081830303815290604052905060603073ffffffffffffffffffffffffffffffffffffffff1663d1f6d4c53073ffffffffffffffffffffffffffffffffffffffff1663d1f6d4c587866040518363ffffffff1660e01b8152600401808060200180602001838103835285818151815260200191508051906020019080838360005b83811015610732578082015181840152602081019050610717565b50505050905090810190601f16801561075f5780820380516001836020036101000a031916815260200191505b50838103825284818151815260200191508051906020019080838360005b8381101561079857808201518184015260208101905061077d565b50505050905090810190601f1680156107c55780820380516001836020036101000a031916815260200191505b5094505050505060006040518083038186803b1580156107e457600080fd5b505afa1580156107f8573d6000803e3d6000fd5b505050506040513d6000823e3d601f19601f82011682018060405250602081101561082257600080fd5b810190808051604051939291908464010000000082111561084257600080fd5b8382019150602082018581111561085857600080fd5b825186600182028301116401000000008211171561087557600080fd5b8083526020830192505050908051906020019080838360005b838110156108a957808201518184015260208101905061088e565b50505050905090810190601f1680156108d65780820380516001836020036101000a031916815260200191505b506040525050503073ffffffffffffffffffffffffffffffffffffffff1663d1f6d4c587876040518363ffffffff1660e01b8152600401808060200180602001838103835285818151815260200191508051906020019080838360005b8381101561094e578082015181840152602081019050610933565b50505050905090810190601f16801561097b5780820380516001836020036101000a031916815260200191505b50838103825284818151815260200191508051906020019080838360005b838110156109b4578082015181840152602081019050610999565b50505050905090810190601f1680156109e15780820380516001836020036101000a031916815260200191505b5094505050505060006040518083038186803b158015610a0057600080fd5b505afa158015610a14573d6000803e3d6000fd5b505050506040513d6000823e3d601f19601f820116820180604052506020811015610a3e57600080fd5b8101908080516040519392919084640100000000821115610a5e57600080fd5b83820191506020820185811115610a7457600080fd5b8251866001820283011164010000000082111715610a9157600080fd5b8083526020830192505050908051906020019080838360005b83811015610ac5578082015181840152602081019050610aaa565b50505050905090810190601f168015610af25780820380516001836020036101000a031916815260200191505b506040525050506040518363ffffffff1660e01b8152600401808060200180602001838103835285818151815260200191508051906020019080838360005b83811015610b4c578082015181840152602081019050610b31565b50505050905090810190601f168015610b795780820380516001836020036101000a031916815260200191505b50838103825284818151815260200191508051906020019080838360005b83811015610bb2578082015181840152602081019050610b97565b50505050905090810190601f168015610bdf5780820380516001836020036101000a031916815260200191505b5094505050505060006040518083038186803b158015610bfe57600080fd5b505afa158015610c12573d6000803e3d6000fd5b505050506040513d6000823e3d601f19601f820116820180604052506020811015610c3c57600080fd5b8101908080516040519392919084640100000000821115610c5c57600080fd5b83820191506020820185811115610c7257600080fd5b8251866001820283011164010000000082111715610c8f57600080fd5b8083526020830192505050908051906020019080838360005b83811015610cc3578082015181840152602081019050610ca8565b50505050905090810190601f168015610cf05780820380516001836020036101000a031916815260200191505b5060405250505090506000818051906020012090506000803073ffffffffffffffffffffffffffffffffffffffff166366327cfc846040518263ffffffff1660e01b815260040180828152602001915050604080518083038186803b158015610d5857600080fd5b505afa158015610d6c573d6000803e3d6000fd5b505050506040513d6040811015610d8257600080fd5b8101908080519060200190929190805190602001909291905050506fffffffffffffffffffffffffffffffff19169150915080826fffffffffffffffffffffffffffffffff19161115610f08576000606460058a0281610dde57fe5b0460028a02039050610e256040518060400160405280600781526020017f596f752057696e00000000000000000000000000000000000000000000000000815250826104e2565b60008a73ffffffffffffffffffffffffffffffffffffffff168260405180600001905060006040518083038185875af1925050503d8060008114610e85576040519150601f19603f3d011682016040523d82523d6000602084013e610e8a565b606091505b5050905080610f01576040517f08c379a00000000000000000000000000000000000000000000000000000000081526004018080602001828103825260148152602001807f6661696c656420746f2073656e6420657468657200000000000000000000000081525060200191505060405180910390fd5b5050610f47565b610f466040518060400160405280600a81526020017f47414d45204f5645522e00000000000000000000000000000000000000000000815250611136565b5b505050505050505050565b6000808291508260801b9050915091565b60008054905090565b600160009054906101000a900473ffffffffffffffffffffffffffffffffffffffff1681565b6000610fd46040518060400160405280601081526020017f416464696e6720257320616e64202573000000000000000000000000000000008152508484611234565b8183016000819055507f16aac1a68ba26f8862863b34bb596b6ad931b8dd2363c5364444625e8dd2d2546000546040518082815260200191505060405180910390a16110576040518060400160405280600781526020017f546f74616c3a20000000000000000000000000000000000000000000000000008152506000546104e2565b600054905092915050565b6060600083519050600083518201905060006020601f8751018161108257fe5b04905060006020601f8751018161109557fe5b04905060405183815260005b838110156110c85780600101602002890151816001016020028301528060010190506110a1565b5060005b828110156110f557806001016020028801518682600101602002018301528060010190506110cc565b50836020018101604052809550505050505092915050565b60008151905060006a636f6e736f6c652e6c6f679050602083016000808483855afa5050505050565b611231816040516024018080602001828103825283818151815260200191508051906020019080838360005b8381101561117d578082015181840152602081019050611162565b50505050905090810190601f1680156111aa5780820380516001836020036101000a031916815260200191505b50925050506040516020818303038152906040527f41304fac000000000000000000000000000000000000000000000000000000007bffffffffffffffffffffffffffffffffffffffffffffffffffffffff19166020820180517bffffffffffffffffffffffffffffffffffffffffffffffffffffffff838183161783525050505061110d565b50565b61133f8383836040516024018080602001848152602001838152602001828103825285818151815260200191508051906020019080838360005b8381101561128957808201518184015260208101905061126e565b50505050905090810190601f1680156112b65780820380516001836020036101000a031916815260200191505b509450505050506040516020818303038152906040527f969cdd03000000000000000000000000000000000000000000000000000000007bffffffffffffffffffffffffffffffffffffffffffffffffffffffff19166020820180517bffffffffffffffffffffffffffffffffffffffffffffffffffffffff838183161783525050505061110d565b50505056fea26469706673582212202e007dac2d324f8c41ed5e09cd7a9734ece02e59d3c0012c88830c375767534864736f6c63430007030033",
  "linkReferences": {},
  "deployedLinkReferences": {}
}